:020000040800F2
:10000000B01D002071300008570200085902000896
:100010005D0200086102000865020008000000009F
:10002000000000000000000000000000690200085D
:100030006B020008000000006D0200086F0200085B
:1000400087300008873000088730000887300008B4
:1000500087300008873000088730000887300008A4
:100060008730000887300008873000088730000894
:100070008730000887300008873000088730000884
:100080008730000887300008873000088730000874
:100090008730000887300008873000088730000864
:1000A0008730000887300008873000088730000854
:1000B0008730000889010008873000088730000871
:1000C0008730000887300008873000088730000834
:1000D00087300008512F00084F02000887300008C1
:1000E000873000088730000887300008DFF80CD020
:1000F00005F00AF80048004701010008B01D002083
:1001000002F066FC4FF4A06002F0C0FF4FF4E13053
:1001100002F0D7FC4FF4E13001F03EFC01F0A7F90A
:1001200000F050FF01F05AF800F072FF41F61F4155
:1001300040F2F31001F04CFA01F052FD01F0A1FD84
:100140004FF4967002F081FC00200B490860642097
:1001500002F07BFC01200949C1F8A00100F094F8ED
:1001600001200749086006E00648006808B100F071
:10017000F1FD01F07CFEF7E7A001214200002142E1
:10018000000000202C11002010B50121384804F097
:1001900068FC00285AD00121354804F073FC35482A
:1001A0000078401C3349087008460078052801DDB6
:1001B0000020087030480078042802DD00202E4915
:1001C00008702C480078012806D0022814D0032893
:1001D00003D0052839D101E000BF00BF27480068DF
:1001E00008B9012000E00020244908602448006884
:1001F00008B100F0CEF828E02248006820B31E487D
:100200000078401C1C4908700846007805280BD16E
:100210001A483830006808B9012000E0002017496A
:100220003831086001F0ABFD1348007802280BD18B
:1002300012483830006808B9012000E000200F495A
:100240003831086001F037FD00BF00BF10BD10B5A8
:1002500001F007FC10BD704700BFFEE700BFFEE7DE
:1002600000BFFEE700BFFEE770477047704770476A
:100270000004004004000020050000208401214209
:10028000240000200000002010B504F01EFC02F045
:1002900000FB10BD10B5002408E0FD4A02EB84010C
:1002A000FC4A32F8140002F0D4F9641C052CF4DB8B
:1002B00010BD10B5F84CE0702171627110BD30B501
:1002C00005460C4615BB14B1012C1ED10EE0F348B7
:1002D000006828B1012210211046FFF7EAFF04E070
:1002E000002210210120FFF7E4FF0EE0EB484068F8
:1002F00028B101220F211046FFF7DBFF04E00022A6
:100300000F210120FFF7D5FF00BF00BF022D3FD115
:1003100024B1012C1DD0022C39D129E0E04800681D
:1003200020B9002211210320FFF7C3FFDC48006839
:10033000012804D1012211210320FFF7BAFFD84878
:100340000068022804D1022211210320FFF7B1FF27
:100350001DE0D348406828B1012210210320FFF797
:10036000A8FF04E0002210210320FFF7A2FF0EE007
:10037000CB48806828B1012212210320FFF799FFA2
:1003800004E0002212210320FFF793FF00BF00BF0B
:1003900030BD10B500240DE0BF48015DC14803F039
:1003A0009FFB00BF4021BF4803F008FC0128F9D1A2
:1003B000601CC4B2082CEFDB10BD0021016041605D
:1003C000816002218161C1610162704700B5B64858
:1003D000FFF7F3FFB548FFF7F0FFB548FFF7EDFF74
:1003E000B448FFF7EAFFB448FFF7E7FF00BD08B5E0
:1003F00000221146104600F0CEFF012200211020FD
:1004000000F0C9FF02220021202000F0C4FF0322D7
:100410000021302000F0BFFF04220021402000F026
:10042000BAFF05220021502000F0B5FF062200216E
:10043000602000F0B0FF07220021702000F0ABFF29
:1004400008220221002000F0A6FF0922022110202C
:1004500000F0A1FF102001231A4602210090202065
:1004600000F01CFF3A220221282000F0D7FE0A22C9
:100470000221402000F08FFF0B220221502000F0CB
:100480008AFF10200123022211460090602000F014
:1004900005FF3A220221682000F0C0FE0C22042150
:1004A000002000F078FF0D220421102000F073FFDF
:1004B00010200123032204210090202000F0EEFEF2
:1004C0003A220421282000F0A9FE0E220421402017
:1004D00000F061FF0F220421502000F05CFF10208B
:1004E0000123042211460090602000F0D7FE3A223A
:1004F0000421682000F092FE10220621002000F066
:100500004AFF0F220621102000F045FF1020012392
:10051000052206210090202000F0C0FE3A2206218C
:10052000282000F07BFE38220621402000F033FF17
:1005300039220621502000F02EFF3A2206216020A9
:1005400000F06CFE08BD10B5044614B1012C0CD1AE
:1005500005E036220621682000F01DFF05E03A2262
:100560000621682000F017FF00BF00BF10BD70B566
:1005700004460D4665B3072C29D2DFE804F02804B1
:100580000A10161C22002B220221302000F046FE09
:100590001DE02B220221702000F040FE17E02B22EC
:1005A0000421302000F03AFE11E02B2204217020BB
:1005B00000F034FE0BE02B220621302000F02EFE4E
:1005C00005E02B220621702000F028FE00BF2CE061
:1005D000072C29D2DFE804F028040A10161C220098
:1005E0002D220221302000F019FE1DE02D220221D3
:1005F000702000F013FE17E02D220421302000F0BF
:100600000DFE11E02D220421702000F007FE0BE00A
:100610002D220621302000F001FE05E02D220621CA
:10062000702000F0FBFD00BF00BF70BD10B50124BD
:1006300007E0601E214A52F820102046FFF797FF7E
:10064000641C062CF5DB10BD10B50446052C1DD22C
:10065000DFE804F00336506A84003C22022138208F
:1006600000F0DCFD20220221782000F0D7FD2022BE
:100670000421382000F0D2FD20220421782000F04F
:10068000CDFD20220621382000F0C8FD80E00000CA
:1006900094120020340000201C0000202C000020B8
:1006A000AC120020003801407C110020B011002065
:1006B000E4110020181200204C12002080120020AB
:1006C00020220221382000F0A9FD3C2202217820BE
:1006D00000F0A4FD20220421382000F09FFD2022FC
:1006E0000421782000F09AFD20220621382000F015
:1006F00095FD4DE020220221382000F08FFD2022C0
:100700000221782000F08AFD3C220421382000F0EC
:1007100085FD20220421782000F080FD2022062182
:10072000382000F07BFD33E020220221382000F049
:1007300075FD20220221782000F070FD2022042186
:10074000382000F06BFD3C220421782000F066FD8B
:1007500020220621382000F061FD19E0202202212C
:10076000382000F05BFD20220221782000F056FDA9
:1007700020220421382000F051FD2022042178207D
:1007800000F04CFD3C220621382000F047FD00BF60
:1007900000BF10BD10B504462C220021084600F011
:1007A000FAFD2D220021102000F0F5FD3E2200214F
:1007B000202000F033FD30220021282000F02EFD03
:1007C00058220021302000F029FD04232246002178
:1007D000382000F0A5FD10BD38B5044611220221D5
:1007E000002000F0D8FD12220221102000F0D3FDDD
:1007F0003E220221202000F011FD1020022322467B
:1008000019460090282000F049FD38BD38B504464F
:1008100013220221402000F0BEFD122202215020AE
:1008200000F0B9FD3E220221602000F0F7FC10200C
:100830000223224619460090682000F02FFD38BDA3
:1008400038B5044614220421002000F0A4FD132230
:100850000421102000F09FFD3E220421202000F002
:10086000DDFC10200323224604210090282000F004
:1008700015FD38BD38B5044615220421402000F08E
:100880008AFD16220421502000F085FD3E2204211D
:10089000602000F0C3FC10200323224604210090B6
:1008A000682000F0FBFC38BD38B504461A2204214C
:1008B000002000F070FD1B220421102000F06BFDD1
:1008C0001C220421202000F066FD1D22042130207E
:1008D00000F061FD1E220421402000F05CFD1F227B
:1008E0000421502000F057FD3E220421602000F03A
:1008F00095FC10200323224604210090682000F07C
:10090000CDFC38BD10B5044620220621002000F0A1
:1009100042FD21220621102000F03DFD2222062169
:10092000202000F038FD23220621302000F033FD86
:100930003E220621402000F071FC64B1012C15D14B
:100940002E220621482000F026FD2F2206215820C5
:1009500000F021FD0AE030220621482000F01BFDB6
:100960002F220621582000F016FD00BF00BF10BD49
:1009700010B5044617220621402000F00CFD182275
:100980000621502000F007FD3E220621602000F0E5
:1009900045FC14B1012C0CD105E03222062168205F
:1009A00000F0F9FC05E031220621682000F0F3FC9C
:1009B00000BF00BF10BD10B504461922062100205B
:1009C00000F0E9FC15220621102000F0E4FC3E2294
:1009D0000621202000F022FC14B1012C0CD105E0EE
:1009E00032220621282000F0D6FC05E03122062123
:1009F000282000F0D0FC00BF00BF10BD10B5044699
:100A000024220421002000F0C6FC2522042110200D
:100A100000F0C1FC3E220421202000F0FFFB24B1A5
:100A2000012C08D0022C12D10BE035220421282001
:100A300000F0B1FC0BE033220421282000F0ABFCD5
:100A400005E034220421282000F0A5FC00BF00BFEF
:100A500010BD10B5044626220621402000F09BFC64
:100A600027220621502000F096FC3E22062160201D
:100A700000F0D4FB14B1012C0CD105E03422062186
:100A8000682000F088FC05E033220621682000F091
:100A900082FC00BF00BF10BD10B504462A2204210D
:100AA000002000F078FC2B220421102000F073FCC1
:100AB0003E220421202000F0B1FB14B1012C0CD106
:100AC00005E032220421282000F065FC05E03122F7
:100AD0000421282000F05FFC00BF00BF10BD10B54E
:100AE000044628220421002000F055FC292204217C
:100AF000102000F050FC3E220421202000F08EFB4C
:100B00003CB1012C0BD132220421282000F043FCFF
:100B100005E031220421282000F03DFC00BF00BF89
:100B200010BD10B5FE48FFF735FE082200216020F9
:100B300000F031FC09220021702000F02CFCF84963
:100B40004868FFF749FEF6498868FFF75FFEF449F9
:100B5000C868FFF775FEF2490869FFF78BFEF04998
:100B6000486AFFF705FFEE49886AFFF724FF10BDCA
:100B700010B5EC48FFF70EFE0A220021602000F0BD
:100B80000AFC0B220021702000F005FCE5494868B2
:100B9000FFF722FEE3498868FFF738FEE14948691C
:100BA000FFF782FEDF498869FFF7ACFE10BD10B584
:100BB000DD48FFF7EFFD0C220021602000F0EBFB89
:100BC0000D220021702000F0E6FBD7494868FFF7AE
:100BD00003FED5498868FFF719FED349C86AFFF7B5
:100BE0000DFFD1490869FFF745FECF49886AFFF735
:100BF000E2FECD49086BFFF72CFF10BD10B5CB48C6
:100C0000FFF7C8FD0E220021602000F0C4FB0F2278
:100C10000021702000F0BFFBC4494868FFF7DCFDED
:100C2000C2498868FFF7F2FDC049086AFFF757FF1D
:100C3000BE490869FFF71EFE10BD10B5BC48FFF79E
:100C4000A9FD10220021602000F0A5FB0F22002149
:100C5000702000F0A0FBB6494868FFF7BDFDB4491D
:100C60008868FFF7D3FDB249C869FFF715FF10BDCB
:100C700010B50446052C13D2DFE804F00306090C76
:100C80000F00FFF74EFF0BE0FFF772FF08E0FFF7E2
:100C90008EFF05E0FFF7B2FF02E0FFF7CEFF00BFD7
:100CA00000BF10BD10B5044614B1012C16D10AE0E6
:100CB0003C220621382000F0B1FA202206217820BB
:100CC00000F0ACFA0AE020220621382000F0A6FA53
:100CD0003C220621782000F0A1FA00BF00BF10BD21
:100CE00010B5044624B1012C12D0022C30D11FE0E3
:100CF0003C220421382000F091FA202206213820DD
:100D000000F08CFA20220621782000F087FA1FE0FC
:100D100020220421382000F081FA3C2206213820CC
:100D200000F07CFA20220621782000F077FA0FE00C
:100D300020220421382000F071FA202206213820D8
:100D400000F06CFA3C220621782000F067FA00BF20
:100D500000BF10BD10B577480068042802DD0020F0
:100D60007449086073480068002802DA0420714959
:100D7000086071480068012802DD00206E490860A3
:100D80006E480068022802DD00206C49086000F00F
:100D900061F9022806D003286FD004286ED00528F8
:100DA0006DD196E06448006801287AD161480068F6
:100DB00018B160480068022873D15F4800680128B4
:100DC00029D15C48006830BB5D48006810B101283B
:100DD0001AD10CE05B48006808B9012000E000204F
:100DE00058490860084600684D4988620CE055483B
:100DF000406808B9012000E00020524948600846D8
:100E000040684749486200BF00BF4D4801684948F3
:100E10000068FFF754FA48480068012848D145485F
:100E20000068022844D14648006820B1012812D049
:100E300002282ED11CE044480068401C424908604A
:100E400008460068022801DD002008603E4800686E
:100E50003549C8621DE03C48406808B9012000E0FF
:100E6000002039494860084640682F49886210E0F0
:100E70003548806828B9012004E01AE021E041E00B
:100E80000FE00020304988600846806826490863E2
:100E900000BF00BF2A48016826480068FFF70FFA24
:100EA00006E024480068401E2249086000F096F9D8
:100EB00028E020480068401C1E49086000F08EF9B8
:100EC00020E01D480068401C1B49086000F086F9BE
:100ED00018E01B480068401C194908601648006863
:100EE00078B91A48006808B9012000E000201849C4
:100EF00088711648006808B9012000E000201349F5
:100F0000086000BF00BF0C48006830BBFFF76FFAF5
:100F100008480068FFF798FBFFF788FB0B4819E0CB
:100F20007C110020B0110020E411002018120020D4
:100F30004C120020A8000020AC000020B4000020CB
:100F4000B00000202C000020AC120020280000205F
:100F50001C0000200068FFF7F6FA17480068012817
:100F600003D116480068FFF783FE13480068012884
:100F70000DD11248006850B911480068012802DDFF
:100F800000200F4908600E480068FFF78BFE0A48F2
:100F9000006801280ED10948006802280AD10848D3
:100FA0000068022802DD0020054908600448006846
:100FB000FFF796FE10BD0000AC000020A800002046
:100FC000B000002008B50121042002F0E9FB012156
:100FD000084602F0E5FB01210B4802F0F6F948F261
:100FE0000310ADF8000010208DF8030003208DF8E9
:100FF00002006946054802F017F948F20311034858
:1010000002F0BFF908BD00000002300000080140F6
:1010100008B50121082002F0C3FB1B20ADF8000039
:1010200048208DF803006946344802F0FDF801219C
:10103000042002F0B5FB4FF48070ADF800001020E2
:101040008DF8030003208DF8020069462C4802F059
:10105000EBF808BD10B50821284802F078F978B1FE
:101060000221264802F073F950B11021234802F002
:101070006EF928B10121214802F069F900283AD11E
:10108000012001F0E2FC08211C4802F060F940B99F
:1010900000BF0821194802F05AF90028F9D00520AC
:1010A00010BD0221154802F052F940B900BF0221DB
:1010B000124802F04CF90028F9D00220F0E7102184
:1010C0000E4802F044F940B900BF10210B4802F06D
:1010D0003EF90028F9D00320E2E70121074802F099
:1010E00036F940B900BF0121044802F030F9002868
:1010F000F9D00420D4E70020D2E70000000C014022
:101100000008014070B504460E462EB14FF4007140
:10111000FE4802F036F904E04FF40071FB4802F09B
:1011200032F90821FA4802F02EF9002517E0402193
:10113000F64802F028F904F0800020B18021F3483D
:1011400002F01FF903E08021F04802F01CF9402171
:10115000EE4802F016F96006040E681CC5B2082DB0
:10116000E5DB0821EA4802F00CF94FF40071E7488A
:1011700002F007F970BD70B504460D4605F1B001E7
:10118000C8B20021FFF7BEFF102141EA1410002170
:10119000FFF7B8FF04F00F0141F001000021FFF755
:1011A000B1FF70BD10B500218D20FFF7ABFF00210E
:1011B0001420FFF7A7FF0021AF20FFF7A3FF10BD0A
:1011C00010B500218D20FFF79DFF00211020FFF7B3
:1011D00099FF0021AE20FFF795FF10BD70B50024E8
:1011E00019E004F1B001C8B20021FFF78BFF002124
:1011F0000846FFF787FF00211020FFF783FF002537
:1012000005E001210020FFF77DFF681CC5B2802D9D
:10121000F7DB601CC4B2082CE3DB70BD2DE9F041A4
:1012200007460E46904600250024A8F12000C5B2CE
:101230007F2F02DD0027B01CC6B231463846FFF7CB
:101240009AFF002408E004EB0511B24A505C01212A
:10125000FFF758FF601CC4B2082CF4DB701CC1B24D
:101260003846FFF788FF002409E004EB0511083138
:10127000A84A505C0121FFF745FF601CC4B2082C4E
:10128000F3DBBDE8F08110B50246012000E05043D9
:101290000B00A1F10104E1B2F9D110BD2DE9FF5F0E
:1012A000074691461D460E9E4FF0000A002433E08B
:1012B000281B401EC1B20A20FFF7E5FFB9FBF0F082
:1012C0000A21B0FBF1F201FB1208BAF1000F13D1B1
:1012D000681EA04210DDB8F1000F0BD1B34606EB3B
:1012E000DB71491001FB0471C8B220220199FFF79C
:1012F00095FF0FE04FF0010AB34606EBDB71491092
:1013000001FB0471C8B208F13001CAB20199FFF7BC
:1013100085FF00BF601CC4B2AC42C9DBBDE8FF9FC3
:101320002DE9F04105460F4616469846002411E087
:10133000325D39462846FFF771FF05F10800C5B256
:10134000782D02DD0025B81CC7B2601CC4B244452C
:1013500000D102E0305D0028EAD100BFBDE8F08195
:101360002DE9F04104460F46154600260EE0AA5D21
:1013700039462046FFF752FF04F10800C4B2782C2A
:1013800002DD0024B81CC7B2701CC6B2A85D0028DC
:10139000EDD1BDE8F0812DE9F04180460E461546BD
:1013A000002731464046FFF7E6FE00240AE05A4A8D
:1013B00002EB8511085D0121FFF7A4FE781CC7B27E
:1013C000601CC4B2102CF2DB701CC1B24046FFF7A7
:1013D000D2FE00240CE06900491C4F4A02EB411187
:1013E000085D0121FFF78EFE781CC7B2601CC4B2F5
:1013F000102CF0DBBDE8F0812DE9F05F06460F46CA
:1014000090461C46DDF828A04FF0000BE11704EBD6
:101410005171C910A4EBC10131B92046E11704EBA9
:101420005171C1F3C70506E02046E11704EB517185
:10143000C910491CCDB23D4615E029463046FFF79C
:101440009AFEB1460BE059460BF1010B1AF8010068
:101450000121FFF757FE09F1010000F0FF09C14526
:10146000F1DB681CC5B2A542E7DBBDE8F09F08B51B
:101470000121082002F094F94FF47270ADF80000D9
:1014800010208DF8030003208DF8020069461F48E4
:1014900001F0CAFE4FF472711C4801F072FF4FF464
:1014A00080711A4801F06DFF012001F0CEFA4FF46F
:1014B0008071164801F067FF022001F0C6FA4FF470
:1014C0008071124801F05DFF0021AE20FFF71AFE87
:1014D00000210846FFF716FE00211020FFF712FE3C
:1014E00000214020FFF70EFE00218120FFF70AFEB9
:1014F0000021CF20FFF706FE0021A120FFF702FE0A
:101500000021C820FFF7FEFD002107E0000C01408C
:10151000000801407C560008B8000020A620FFF714
:10152000F1FD0021A820FFF7EDFD00213F20FFF78E
:10153000E9FD0021D320FFF7E5FD00210846FFF774
:10154000E1FD0021D520FFF7DDFD00218020FFF720
:10155000D9FD0021D920FFF7D5FD0021F120FFF7AB
:10156000D1FD0021DA20FFF7CDFD00211220FFF789
:10157000C9FD0021DB20FFF7C5FD00214020FFF75A
:10158000C1FD00212020FFF7BDFD00210220FFF753
:10159000B9FD00218D20FFF7B5FD00211420FFF7D4
:1015A000B1FD0021A420FFF7ADFD0021A620FFF72B
:1015B000A9FD0021AF20FFF7A5FD0021AF20FFF717
:1015C000A1FDFFF70BFE00210846FFF7D4FD08BD83
:1015D0007FB505460C460121022002F0EEF8ADF879
:1015E0000850ADF804400020ADF80A00ADF8060040
:1015F00001A90D4802F010FC012211460A4802F030
:1016000082FF1D208DF8000003208DF801008DF869
:10161000020001208DF80300684601F03CFD012125
:10162000014802F055FF7FBD0004004010B5D020F6
:1016300003F0DAFE040003D0D021204603F01DFDA4
:10164000204610BD30B502460020002400BF0B46E6
:10165000CD1701EB5565ED11A1EBC515ECB2CD171A
:1016600001EB5565E911002901DD44F0800452F8D1
:10167000C85F13685B1C42F8C8395455431CD8B284
:10168000002901DD0528E2DB30BD024652F8C83FE3
:101690001068401C42F8C809D1540020704770B54A
:1016A00004460E461546D4F8C81008192A46314695
:1016B00003F0CAFCD4F8C8002844C4F8C8000020CD
:1016C00070BD70B504460E46304603F0FFFC05B20F
:1016D000C5F307212046FFF7D8FFE9B22046FFF700
:1016E000D4FFD4F8C81008192A46314603F0ACFCE0
:1016F000D4F8C8002844C4F8C800002070BD0146D2
:1017000051F8CC2F0868401C41F8CC09885C704720
:1017100070B503461846FFF7F2FF05461846FFF777
:10172000EEFF064646EA0524204670BD30B5044665
:101730000023042504E01B022046FFF7E0FF0343DB
:10174000681E051EF7DA184630BD70B504460D4612
:101750001646D4F8CC0001193246284603F074FC32
:10176000D4F8CC003044C4F8CC0070BDF0B50746C6
:10177000012300240025002600BF3846FFF7BFFFE5
:10178000054605F07F0000FB0366DB01641C042CAA
:1017900002D94FF0FF30F0BD05F080000028ECD1F9
:1017A0003046F8E72DE9F04104460D46FFF73EFFCD
:1017B000070001D1BDE8F08110213846FFF765FF31
:1017C000204603F083FC00F10B08284603F07EFC62
:1017D000801C08EB000631463846FFF733FF6BA14B
:1017E0003846FFF76EFF01213846FFF74EFF4021D4
:1017F0003846FFF74AFF00213846FFF746FF8021B1
:101800003846FFF742FF21463846FFF75AFF294680
:101810003846FFF756FF3846CCE72DE9F043B3B022
:1018200004460F469046FFF701FF5FEA000903D127
:10183000484633B0BDE8F08343463A4654A101A878
:1018400003F0A4FC01A803F041FC064680214846B1
:10185000FFF71BFF94B1204603F038FC001DB11CBC
:10186000451829464846FFF7EDFE80214846FFF718
:101870000CFF21464846FFF724FF08E0351D2946A6
:101880004846FFF7DFFE00214846FFF7FEFE052130
:101890004846FFF7FAFE01A94846FFF712FF4846FF
:1018A000C7E710B50446D021204603F0E6FB10BD83
:1018B000F0B50346002401250026012100271A4621
:1018C000D3F8C840012C01D80020F0BD00BF042986
:1018D00002D94FF0FF30F8E7601E884201D20020A5
:1018E000F3E7491C521C107800F07F0000FB0566EE
:1018F000ED01107800F080000028E8D18F19A74290
:1019000001D10120E1E70020DFE72DE9F047804623
:10191000894614461D46DDE908674046FFF7EFFE9D
:101920004046FFF723FF28604046FFF7F1FE306096
:10193000494640463268FFF708FF4046FFF7F6FE8B
:101940003860214640463A68FFF7FFFEBDE8F08761
:101950002DE9F04106460F4614463046FFF7CFFE0C
:101960003046FFF703FF80463046FFF7D1FE0546BD
:101970002A4639463046FFF7E8FEA8F10200421B2E
:1019800021463046FFF7E1FEBDE8F08145445000B6
:101990002C3B25732C25730010B586B0044601211D
:1019A000042001F0FDFE0121480401F006FF04209F
:1019B000ADF8140003208DF8160018208DF81700DC
:1019C00005A9744801F030FC0820ADF8140004208B
:1019D0008DF8170005A96F4801F026FC26208DF828
:1019E000000002208DF8010003208DF80200012084
:1019F0008DF80300684601F04EFB01940020ADF81D
:101A00000800ADF80A00ADF80C00ADF810000C208D
:101A1000ADF80E0001A9604801F069FF012240F213
:101A200025515D4801F0FBFF012240F224415A4854
:101A300001F0F5FF0121584801F0E5FF06B010BDA7
:101A400010B50446554801780078401C534A107080
:101A500053484454012240F227714F4801F0DFFF00
:101A600010BD10B508214C4802F0A8F810B14A4842
:101A700002F03AF84848008800F0800020B3464859
:101A80000C30008800F08000F0B146480178007802
:101A9000401C444A10704248405C3F49091D088080
:101AA000104600783D49097888420DD13A480C30FB
:101AB000008820F0800038490C310880002240F274
:101AC0002771354801F0ABFF3348008800F0200053
:101AD00060B13148001D0088C1B233480268006817
:101AE000401C314B1860314881540FE040F22441D2
:101AF000294802F079F848B127480088C4B226483E
:101B0000001D0088C4B201202949086010BD70B5CD
:101B100005460E46002403E0285DFFF791FF641C94
:101B2000B442F9DB70BD10B504460FE020780D28F3
:101B300002D1FFF785FF08E020780A2802D1FFF7DD
:101B40007FFF02E02078FFF77BFF641C20780028ED
:101B5000ECD110BD70B505460E4600240AE0295DA3
:101B60000E4802780078401C0C4B18700C488154C9
:101B7000601CC4B2B442F2DB07480C30008800F0AD
:101B8000800028B9012240F22771034801F047FF85
:101B900070BD00000008014000440040811000209A
:101BA00042150020801000207C100020EA12002046
:101BB0007810002010B5FE48006801280FD10020E1
:101BC000FB490860FB4A00210846FFF7C9FB4FF4B8
:101BD0001671F84803F051FA0020F749086010BD6B
:101BE00010B54FF4C87000F030FFF4A0FFF79BFF72
:101BF000C82000F02AFFFFF7F1FAFFF7DBFFF9A09A
:101C0000FFF791FFC82000F020FFFFF7E7FAFFF78A
:101C1000D1FFF8A0FFF787FFC82000F016FFFFF7FD
:101C2000DDFAFFF7C7FFE5A0FFF77DFFC82000F052
:101C30000CFFFFF7D3FAFFF7BDFFEAA0FFF773FF32
:101C4000642000F002FFFFF7C9FAFFF7B3FFE9A035
:101C5000FFF769FFC82000F0F8FEFFF7BFFAFFF7B3
:101C6000A9FF0020E749086010BD10B504463CB14B
:101C70002046D4F8C810FFF74AFF204603F08CFB3B
:101C800010BD10B5E0A1E8A0FFF78CFD0446FFF7FA
:101C9000ECFF10BDF8B504460D462A46E4A168469F
:101CA00003F074FA6A4621460020FFF7B6FD0646A7
:101CB000FFF7DBFFF8BD10B5DE48006820B1DE4855
:101CC000C168DEA0FFF7E6FF0A2000F09AFED948BF
:101CD000006820B1D8480169DDA0FFF7DBFF0A20CA
:101CE00000F08FFED348406820B1DF484169DFA093
:101CF000FFF7D0FF0A2000F084FECE48406848B1CC
:101D0000D948806908B9012000E000200146DDA023
:101D1000FFF7C0FF0A2000F074FEC648806820B1BB
:101D2000DC480169DCA0FFF7B5FF0A2000F069FE7E
:101D3000C048C06820B1DE480169DEA0FFF7AAFFF5
:101D40000A2000F05EFEBB48C06848B1D848006A6F
:101D500008B9012000E000200146DCA0FFF79AFF4F
:101D60000A2000F04EFEB348006920B1DB48C1698B
:101D7000DBA0FFF78FFF0A2000F043FE10BD10B577
:101D8000AC48006820B1AC484168D948FFF782FFF1
:101D90000A2000F036FEA748406828B1B2484168E2
:101DA000D3481230FFF776FF0A2000F02AFEA14840
:101DB000806828B1B7484168CD482430FFF76AFFF2
:101DC0000A2000F01EFE9B48C06828B1B848416850
:101DD000C7483630FFF75EFF0A2000F012FE954834
:101DE000006928B1BD484168C1484830FFF752FF3B
:101DF0000A2000F006FE8F48006820B18E488168F6
:101E0000BC48FFF747FF0A2000F0FBFD8948406807
:101E100028B195488168B7480F30FFF73BFF0A208B
:101E200000F0EFFD8348806828B19A488168B14886
:101E30001E30FFF72FFF0A2000F0E3FD7D48C06849
:101E400028B19B488168AB482D30FFF723FF0A205B
:101E500000F0D7FD7748006928B1A0488168A548FF
:101E60003C30FFF717FF0A2000F0CBFD10BD10B586
:101E70004F48006801287DD100204D4908604D4839
:101E800090F82C0041281DD14A4890F82D003128A7
:101E900018D1012211210320FEF70BFA01207D4900
:101EA000C86295490860012194A0FFF7F3FE002065
:101EB00054491C3908600A2000F0C7FD01209449EC
:101EC000C1F8A0013B4890F82C0041281ED13948A8
:101ED00090F82D00302819D1002211210320FEF79F
:101EE000E8F900206B49C86201208349086000219D
:101EF00082A0FFF7CFFE002042491C3908600A206B
:101F000000F0A3FD01208249C1F8A001294890F802
:101F10002C0041281ED1274890F82D00322819D1D5
:101F2000022211210320FEF7C4F902205949C86298
:101F3000012071490860022170A0FFF7ABFE00206C
:101F400030491C3908600A2000F07FFD01207049EB
:101F5000C1F8A001174890F82C0042281FD115485D
:101F600090F82D0031281AD1012210210320FEF70C
:101F7000A0F900E06CE20120464988625E490860F1
:101F8000012164A0FFF786FE00201E491C3908606D
:101F90000A2000F05AFD01205D49C1F8A001054862
:101FA00090F82C00422801D10248BDE0DAE00000A0
:101FB00078100020EA1200207C10002041542B43AE
:101FC000495053544152543D22544350222C223103
:101FD00038332E3233302E34302E3339222C3837EA
:101FE000360D0A0041542B4349504D4F44453D3175
:101FF0000D0A000041542B43495053454E440D0AED
:1020000000000000BC0121427A776B664F72766552
:102010005664563765417134784A706F6D56446422
:102020007955733D000000003130383535343400C7
:1020300025640000801200207C1100206465763148
:102040002D3E536F696C48756D6964697479000041
:10205000646576312D3E4C69676874496C6C756DAA
:10206000696E6174696F6E00B0110020646576322C
:102070002D3E476173436F6E63656E747261746960
:102080006F6E0000646576322D3E46697265466C5F
:1020900061670000E4110020646576332D3E4C69D1
:1020A000676874496C6C756D696E6174696F6E00F8
:1020B00018120020646576342D3E4C6967687449B7
:1020C0006C6C756D696E6174696F6E0064657634F1
:1020D0002D3E5261696E466C616700004C12002013
:1020E000646576352D3E48756D616E466C6167009E
:1020F00084100020DE10002024000020426564725D
:102100006F6F6D57696E646F77537769746368009A
:1021100000002142426564726F6F6D4C696768749C
:10212000537769746368000090F82D00302819D146
:10213000002210210320FEF7BCF80020C549886268
:102140000120C54908600021AFF23800FFF7A2FD69
:102150000020C24908600A2000F077FC0120C04935
:10216000C1F8A001BF4890F82C0043281CD1BD48FD
:1021700090F82D00312817D1012212210320FEF7FB
:1021800098F80120B3490863B34908600121B6A05B
:10219000FFF780FD0020B14908600A2000F055FCDF
:1021A0000120AF49C1F8A001AE4890F82C004328A7
:1021B0001DD1AC4890F82D00302818D100221221F2
:1021C0000320FEF776F80020A24908630120A24907
:1021D00008600021A4A0FFF75DFD00209F49086072
:1021E0000A2000F032FC01209D49C1F8A0019D4861
:1021F00090F82C0044281CD19A4890F82D003128E2
:1022000017D1012210211046FEF753F801209B49F7
:10221000886291490860012199A0FFF73BFD0020E9
:102220008E4908600A2000F010FC01208C49C1F89A
:10223000A0018C4890F82C0044281DD1894890F8C2
:102240002D00302818D1002210210120FEF731F88E
:1022500000208A49886201207F490860002188A007
:10226000FFF718FD00207D4908600A2000F0EDFB13
:1022700001207B49C1F8A0017A4890F82C0045283C
:102280001CD1784890F82D00312817D101220F2158
:102290001046FEF70EF80120784948626E49086042
:1022A00001217CA0FFF7F6FC00206C4908600A20A1
:1022B00000F0CBFB01206A49C1F8A001694890F801
:1022C0002C0045281DD1674890F82D00302818D1E2
:1022D00000220F210120FDF7ECFF00206749486232
:1022E00001205D49086000216AA0FFF7D3FC0020AF
:1022F0005A4908600A2000F0A8FB01205849C1F89B
:10230000A001584890F82C00462819D1554890F85B
:102310002D00312814D10120634908606349887178
:102320004D490860012162A0FFF7B4FC00204B4931
:1023300008600A2000F089FB01204949C1F8A0018A
:10234000484890F82C0046281AD1464890F82D00AD
:10235000302815D100205449086054498871012063
:102360003D490860002152A0FFF794FC00203B4942
:1023700008600A2000F069FB01203949C1F8A0017A
:1023800038480078402831D13648407801282DD18E
:10239000344880783C2829D10020484908604849C1
:1023A0000860FEF71BFF302204210020FEF7F3FF38
:1023B000402204210020FEF7EEFF502204210020DD
:1023C000FEF7E9FF602204210020FEF7E4FF64200D
:1023D00000F03BFBFFF755FC642000F036FBFEF7F6
:1023E000FDFE0120354908603549086035A11D48CA
:1023F00002F05AFE48B939A11A4802F055FE20B938
:1024000039A1184802F050FED0B100202B490860D5
:102410004FF47A7000F019FBFFF7E2FBFFF731FC95
:10242000642000F012FB01202449086000200B49C1
:102430000860642000F009FB01200949C1F8A001EF
:102440004FF41671074802F018FE00202949086071
:1024500010BD0000E411002024000020A001214252
:1024600000002142EA120020426564726F6F6D46DF
:10247000616E537769746368000000007C1100206E
:1024800042616C636F6E794C6967687453776974E5
:102490006368000042616C636F6E795761746572A6
:1024A0005377697463680000280000201C00002036
:1024B000436F6E74726F6C4D6F6465000000002096
:1024C0002C11002041692D5468696E6B657220548F
:1024D0006563686E6F6C6F677900000077647420C5
:1024E00072657365740000007764742072656164BE
:1024F000790000007C100020034606210622F748E0
:102500000188F7480288ABB1012B1BD13AB94EF6CE
:10251000EE60814201D1002070470120FCE739B90B
:102520004EF6EE60824201D10120F5E70020F3E78C
:10253000AB20F1E709B90020EEE70AB90120EBE78B
:10254000AB20E9E70020E7E770B50426002401206E
:10255000FFF7D2FF0446AB2C06D1E04800EB842005
:10256000E0490860AB2070BDDC4800EB8420DD4909
:102570000860601CD949891E01EB80250CE0D94810
:1025800000680068401C10B904263046EBE7D548C7
:102590000068001DD3490860D2480068A842EED305
:1025A0008020E0E710B50424CC4802F0D3FA0446BA
:1025B000042C01D0204610BD0021C84802F0CDFBFC
:1025C0000446042C01D02046F5E7C54802F0C2FAC3
:1025D00004462046EFE72DE9F04104460F46042566
:1025E0000026DFF804830120FFF786FF0646AB2EA6
:1025F00001D1BDE8F081701CB849891E01EB80282B
:1026000021E0B84800680068401CB8B93946B548B0
:10261000006802F0A2FB0546042D01D02846E8E739
:102620002146B0480068801C02F097FB0546AD4883
:102630000068001DAB4908602846DAE7A948006831
:10264000001DA8490860A74800684045D9D38020EC
:10265000CFE72DE9F04706460F46002545F25558CD
:102660004FF001099D4CA2460020FFF745FF0546AB
:10267000AB2D01D1BDE8F087984800EB852A994839
:102680000068841E0AE0B4F80080B04505D134F833
:10269000020C38804FF0000904E0241F0AF1020008
:1026A0008442F0D800BF4846E4E72DE9F0474FF0F8
:1026B000060A062600250027A8464FF0FF3987485E
:1026C000B0F800A0864806885FEA0A0075D0A0F539
:1026D0006E40EE3858B3A0F58850113800286DD1FF
:1026E00046B97E4802F036FA0446042C1ED0204635
:1026F000BDE8F0874EF6EE60864210D1774802F0D2
:1027000029FA0446042C01D02046F1E70021744840
:1027100002F023FB0446042C08D02046E8E7FFF72C
:1027200041FF0446042C01D02046E1E7AEE07EBB29
:10273000002522E06948C0886C4931F815108842AC
:1027400001D10FFA85F94D4515D0684931F81500CA
:102750006749FFF77EFF8046B8F1010F0BD0634950
:1027600031F8150062490988FFF735FF0746042F45
:1027700001D03846BCE7681C85B2392DDADB002170
:10278000564802F0EAFA0446042C02D02046AFE78D
:1027900007E0534802F0DEF90446042C1FD020461F
:1027A000A6E74FF6FF70864212D14D4802F0D2F9EB
:1027B0000446042C03D020469AE711E05EE0002195
:1027C000464802F0CAFA0446042C08D020468FE797
:1027D000FFF7E8FE0446042C01D0204688E755E0C8
:1027E00036B9FFF7DFFE0446042C46D020467FE7CB
:1027F0004FF6FF70864207D1394802F0ABF9044624
:10280000042C3AD0204673E7002523E03448801D8D
:102810000088364931F81510884201D10FFA85F940
:102820004D4515D0314931F815003149FFF711FFF9
:102830008046B8F1010F0BD02C4931F815002C4916
:102840000988FFF7C8FE0746042F01D038464FE736
:10285000681C85B2392DD9DB0021214802F07DFAB0
:102860000446042C01D0204642E71C4802F072F9CD
:102870000446042C01D020463AE707E0FFF792FE19
:102880000446042C01D0204632E700BF00BF0420DC
:102890002EE710B5FFF709FF0446FFF755FE204667
:1028A00010BD2DE9F84F074689460425DFF830A012
:1028B000AAF1010A094800904FF000080024002600
:1028C0004FF0000B0020FFF717FE8046B8F1010F14
:1028D00010D1DFF808A00248009016E000000108BF
:1028E0000004010834110020FF0701083400002013
:1028F00030110020B8F1000F04D1DFF8C4A0314836
:10290000009002E0AB20BDE8F88F4EF6EE61504635
:1029100002F023FA0546042D01D02846F3E7FFF71D
:1029200013FE49463846FFF756FE0646042E01D0F0
:102930003046E8E700241CE0234830F81400B84291
:1029400015D0214931F814002049FFF782FE834653
:10295000BBF1010F0BD01C4931F814001B49098849
:10296000FFF739FE0646042E01D03046CBE7601C47
:1029700084B2392CE0DB009802F0ECF80546042D17
:1029800001D02846BFE70021504602F0E6F905468F
:10299000042D01D02846B6E72846B4E770B50546B1
:1029A0000E46002431462846FFF715FE0446802CCB
:1029B00004D131462846FFF774FF0446204670BD17
:1029C000000401080000010834000020301100203C
:1029D00010B56FF0040000F0A8FB2E4800682E49E7
:1029E000B0FBF1F02D4908700846007800EB40017B
:1029F000C1EBC0104FF6FF7101EAC0002849088002
:102A000010BD0146254A12784A434FF0E0235A612F
:102A100000229A611A46126942F001021A6100BF4F
:102A20004FF0E022106900F001021AB100F4803288
:102A3000002AF5D04FF0E022126922F001024FF097
:102A4000E0231A6100229A6170470146144A1288F5
:102A50004A434FF0E0235A6100229A611A461269F4
:102A600042F001021A6100BF4FF0E022106900F04D
:102A700001021AB100F48032002AF5D04FF0E022B2
:102A8000126922F001024FF0E0231A6100229A61DC
:102A9000704700000800002000127A003811002062
:102AA0003A110020014600BF704700BFFA4A128861
:102AB00002F04002002AF9D0C2B2F74B1B1D1A8067
:102AC000704710B586B00446012144F2040000F0BE
:102AD00067FE4FF40070ADF8140003208DF8160067
:102AE00018208DF8170005A9EC4800F09DFB4FF465
:102AF0008060ADF8140004208DF8170005A9E748A0
:102B000000F092FB25208DF8000001208DF80100D7
:102B100003208DF8020001208DF80300684600F0C4
:102B2000BAFA01940020ADF80800ADF80A00ADF83B
:102B30000C00ADF810000C20ADF80E0001A9D6482D
:102B400000F0D5FE012240F22551D34800F067FF86
:102B50000121D14800F057FF06B010BD0020D04938
:102B60000968491CCE4A116011460968052901DD32
:102B700001211160CA490968052908D1002004E033
:102B80000021C84A42F82010401C0528F8DB704795
:102B900030B50B2834D2DFE800F033060D133317BD
:102BA0001B1F23272F00941DE45C4C60D41DE45CA4
:102BB0008C6025E0941DE45CC4F164040C611FE0AA
:102BC000941DE45C4C601BE0941DE45C4C6117E0D8
:102BD000941DE45C0C6213E0941DE45C8C610FE0D6
:102BE000941DE45CCC610BE0D41DE55C941DE45CB9
:102BF00005EB04240C6103E0941DE45CCC6000BF91
:102C000000BF30BD30B5002313600346C41700EB8E
:102C100014742411A44D2C5D1470C41700EB1474AB
:102C20002411A0EB04142C5D54700B46CC1701EB5F
:102C3000147424112C5D9470CC1701EB14742411BE
:102C4000A1EB04142C5DD47030BD70B505460E4662
:102C50001446964A31462846FFF7D4FF00202060EC
:102C60009249204602F014FA70BD70B505460E4632
:102C700000240AE0295D8E4802780078401C8C4BC5
:102C800018708C488154601CC4B2B442F2DB824894
:102C90000C30008800F0800028B9012240F2277132
:102CA0007D4800F0BCFE70BD2DE9F04104460E46A3
:102CB0000025002700BF04E0605D3844C7B2681CEF
:102CC000C5B2701EA842F7DC2078AA2802D160782D
:102CD000AA2801D0BDE8F08114212046FFF7C5FFE6
:102CE000002505E0201D405D73494855681CC5B2AC
:102CF000082DF7DBA078032873D1207906281ED28F
:102D0000DFE800F08B031E395470A17C607C6B4AB5
:102D1000FFF79BFF6079002322466849FFF738FFE1
:102D2000207A032322466549FFF732FFE07A062323
:102D300022466249FFF72CFF01205A4908606CE0E7
:102D4000A17C607C5E4AFFF780FF60790023224609
:102D50005B49FFF71DFF207A032322465849FFF7FE
:102D600017FFE07A062322465549FFF711FF01209D
:102D70004C49486051E0A17C607C524AFFF765FFF6
:102D80006079002322464F49FFF702FF207A032390
:102D900022464C49FFF7FCFEE07A062322464949C9
:102DA000FFF7F6FE01203F49886036E0A17C607C99
:102DB000454AFFF74AFF6079002322464249FFF760
:102DC000E7FE207A032322463F49FFF7E1FEE07A3F
:102DD000062322463C49FFF7DBFE01203149C8604B
:102DE0001BE020E0A17C607C384AFFF72EFF607971
:102DF000002322463549FFF7CBFE207A03232246E3
:102E00003249FFF7C5FEE07A062322462F49FFF735
:102E1000BFFE01202349086100BF00BFFFF79EFEEF
:102E200001202B49087000BF54E710B5044629481B
:102E3000007838B9AA2C05D1012026490870264807
:102E4000047084E023480078012807D1AA2C05D11A
:102E50000220204908702048447078E01D4800781E
:102E6000022807D1F12C05DA03201A4908701A4804
:102E700084706CE017480078032833D1322C31DAA3
:102E80000420144908701448C470144804700020C9
:102E9000134908705BE00000003801400008014061
:102EA00058110020801200204111002051110020F3
:102EB000561100207E160020741600207C11002080
:102EC000B0110020E4110020181200204C12002044
:102ED000401100205E1100207E1700205C110020B0
:102EE0005D11002059480078042819D1584800780D
:102EF000002815DD56480078401E55490870554891
:102F0000007854490978491C524A1170001D5249F1
:102F10000C544F480078D0B905204C49087016E091
:102F20004A48007805280FD10020484908704948D0
:102F30000078001D48490C5446480078401DC1B235
:102F40004548FFF7B1FE02E000204049087010BD7F
:102F500010B50821414800F031FE10B13F4800F0A3
:102F6000C3FD3E48008800F0800020B33B480C3091
:102F7000008800F08000F0B1394801780078401CEA
:102F8000374A10703748405C3449091D08801046A4
:102F900000783549097888420DD130480C300088D6
:102FA00020F080002D490C310880002240F227716A
:102FB0002A4800F034FD2948008800F0200078B14C
:102FC0002648001D0088C4B22046FFF72EFF274880
:102FD000006808B9012000E000202449086000BF13
:102FE00010BD10B50446204801780078401C1E4AE8
:102FF00010701C484454012240F22771174800F019
:103000000EFD10BD70B505460E46002403E0285D98
:10301000FFF7E7FF641CB442F9DB70BD10B504464E
:103020000FE020780D2802D1FFF7DBFF08E02078C1
:103030000A2802D1FFF7D5FF02E02078FFF7D1FF81
:10304000641C20780028ECD110BD00005E11002027
:103050005C1100205D1100207E1700200038014027
:10306000551100207E1600205611002080012142BB
:1030700005480047FEE7FEE7FEE7FEE7FEE7FEE75E
:10308000FEE7FEE7FEE7FEE7ED00000831490143F9
:10309000314A1160704770B5002100230F22C478B7
:1030A00004B32D4C246804F4E064C4F5E064210A00
:1030B000C1F10403CA40447804FA03F1847814404F
:1030C00021430901254C0678A155047804F01F0519
:1030D0000124AC4005786D11AD0005F1E025C5F87F
:1030E000004109E0047804F01F050124AC401C4DA8
:1030F0000678761145F8264070BD1A4A0A40024308
:10310000154B1B1F1A60704739B1134A121D126804
:103110000243114B1B1D1A6006E00F4A121D126874
:1031200082430D4B1B1D1A607047042808D14FF0D5
:10313000E021096941F004014FF0E022116107E04C
:103140004FF0E021096921F004014FF0E022116104
:10315000704700000000FA050CED00E000E400E01C
:1031600080E100E080FFFF1F10B50446CC48844298
:1031700008D10121042000F02DFB0021042000F0E3
:1031800029FB46E0C748844208D10121082000F00D
:1031900021FB0021082000F01DFB3AE0C2488442D8
:1031A00008D10121102000F015FB0021102000F0B3
:1031B00011FB2EE0BD48844208D10121202000F0FF
:1031C00009FB0021202000F005FB22E0B8488442E2
:1031D00008D10121402000F0FDFA0021402000F03C
:1031E000F9FA16E0B348844208D10121802000F0AA
:1031F000F1FA0021802000F0EDFA0AE0AE488442A6
:1032000007D10121801500F0E5FA0021A01500F09A
:10321000E1FA10BD10B50121084600F0DBFA0021EB
:10322000012000F0D7FA10BD2DE9F041024600253B
:103230000026002000230024002791F803C00CF092
:103240000F0591F803C00CF0100CBCF1000F03D077
:1032500091F802C04CEA050591F800C0BCF1000FDE
:1032600031D0146800202BE04FF0010C0CFA00F371
:10327000B1F800C00CEA03069E4220D183004FF053
:103280000F0C0CFA03F7BC4305FA03FC4CEA0404E8
:1032900091F803C0BCF1280F06D14FF0010C0CFAD5
:1032A00000FCC2F814C00AE091F803C0BCF1480F5A
:1032B00005D14FF0010C0CFA00FCC2F810C0401C04
:1032C0000828D1D31460B1F800C0BCF1FF0F34DD81
:1032D000546800202EE000F1080C4FF0010808FAB5
:1032E0000CF3B1F800C00CEA03069E4221D1830022
:1032F0004FF00F0C0CFA03F7BC4305FA03FC4CEA41
:10330000040491F803C0BCF1280F05D100F1080CAA
:1033100008FA0CF8C2F8148091F803C0BCF1480F09
:1033200007D100F1080C4FF0010808FA0CF8C2F8B8
:103330001080401C0828CED35460BDE8F0814FF6C1
:10334000FF710180022181700421C1707047024623
:10335000002093680B400BB1012000E00020704773
:103360000146886880B2704702460020D3680B404F
:103370000BB1012000E0002070470146C86880B210
:10338000704701617047416170470AB1016100E017
:1033900041617047C16070474FF480320A438261D7
:1033A0008161826182698269704702460020434BD5
:1033B00018684FF68073184040EA021008433F4BEC
:1033C000186070473E49C8617047F0B50A4600234F
:1033D00000240021002500F00046B6F1004F02D184
:1033E000364EF16901E0354E7168C0F3034583B292
:1033F00000F44016B6F5401F08D121F070612F4E41
:10340000766826F070662D4F7E6012E000F480161C
:10341000B6F5801F06D1032606FA05F4A14341F054
:10342000706106E0460D360103FA06F6B14341F03D
:10343000706122B1460D360103FA06F6314300F001
:103440000046B6F1004F02D11C4EF16101E01B4E67
:103450007160F0BD30B500228B071C0F0F2303FAFB
:1034600004F2164B08338C1053F824309343134C5A
:1034700008348D1044F8253023468C1053F824303E
:103480008C07240F00FA04F423430C4C08348D10ED
:1034900044F8253030BD0A49DC310860704700002F
:1034A00000080140000C01400010014000140140E0
:1034B00000180140001C01400020014000000140B4
:1034C00000002042DF48006840F00100DD4908604C
:1034D00008464068DC490840DA4948600846006808
:1034E000DA490840D74908600846006820F480207F
:1034F00008600846406820F4FE0048604FF41F0052
:1035000088607047CF49096821F48031CD4A116045
:103510001146096821F480211160B0F5803F03D085
:10352000B0F5802F0ED106E0C649096841F480311C
:10353000C44A116007E0C349096841F4A021C14AA7
:10354000116000E000BF00BF704710B501460022C7
:10355000002300204A11012A02D1BA4C236806E058
:10356000022A02D1B74C236A01E0B64C636A01F02B
:103570001F02012494401C400CB1012000E00020F7
:1035800010BD38B5002000900024002500BF312078
:10359000FFF7DBFF05460098401C00900098B0F54F
:1035A000A06F01D0002DF2D03120FFF7CEFF08B17F
:1035B000012400E00024204638BD01460020A14A35
:1035C000106820F0F80040EAC10010607047A04980
:1035D00008607047024600209A4B586820F47C101F
:1035E00042EA01031843974B5860704798490866B0
:1035F000704701460020934A506820F003000843BA
:10360000506070478F48406800F00C0070470146DA
:1036100000208C4A506820F0F0000843506070474A
:1036200001460020874A506820F4E060084350605B
:10363000704701460020834A506820F4605040EAF9
:10364000C1005060704729B17E4A527A02437D4BD7
:103650005A7204E07B4A527A82437A4B5A7270471C
:103660007B49D8310860704701460020754A506890
:1036700020F440400843506070470021714A2032D6
:103680001170704A82F82010012802D004280AD153
:1036900004E001216B4A2032117005E00521694ADE
:1036A0002032117000E000BF00BF70476949086018
:1036B00070476449096A0143624A1162704765496B
:1036C00044390860704730B50021002200240023EF
:1036D0005C4D6D6805F00C0121B1042905D0082965
:1036E00023D105E05C4D056022E05B4D05601FE0E5
:1036F000544D6D6805F47012524D6D6805F48034B8
:10370000022505EB92421CB9544D554305600BE070
:103710004C4D6D6805F400351DB1504D55430560A5
:1037200002E04D4D5543056002E04B4D056000BF82
:1037300000BF444D6D6805F0F0010909484D6B5C10
:103740000568DD4045603F4D6D6805F4E061090A9C
:10375000434D6B5C4568DD4085603A4D6D6805F40E
:103760006051C90A3E4D6B5C4568DD40C560354D12
:103770006D6805F44041890B3A4D6B5CC568B5FB3B
:10378000F3F5056130BD29B12E4A526902432D4B34
:103790005A6104E02B4A526982432A4B5A617047AE
:1037A00029B1284A92690243264B9A6104E0254ACE
:1037B00092698243234B9A61704729B1214AD269A9
:1037C0000243204BDA6104E01E4AD26982431D4B5A
:1037D000DA61704729B11B4AD2680243194BDA609B
:1037E00004E0184AD2688243164BDA60704729B168
:1037F000144A12690243134B1A6104E0114A126918
:103800008243104B1A617047124940390860704773
:103810000F49C86470470B49C87170470948406A2E
:1038200040F0807007494862704701460020054A11
:1038300092680A400AB1012000E000207047014967
:1038400088727047001002400000FFF8FFFFF6FE8C
:10385000000042428004424200127A0000093D000A
:103860005F1100206F11002010B50446FB48844210
:1038700009D101218803FFF7ADFF00214FF48040FB
:10388000FFF7A8FF32E0F648844209D1012148043D
:10389000FFF7ADFF00214FF40030FFF7A8FF25E050
:1038A000F048844209D101218804FFF7A0FF0021DC
:1038B0004FF48020FFF79BFF18E0EB48844209D1CA
:1038C0000121C804FFF793FF00214FF40020FFF708
:1038D0008EFF0BE0E548844208D101210805FFF77F
:1038E00086FF00214FF48010FFF781FF10BD2DE906
:1038F000F04786B005460E460024A24600BFA1460A
:103900000027B08900B100BF2F462C8A4CF6FF700B
:103910000440F08804432C82AC894EF6F310044036
:10392000B08831890843718908430443AC81AC8A6B
:103930004FF6FF400440B0890443AC8201A8FFF772
:10394000C2FEC648874202D1DDF810A001E0DDF8D2
:103950000CA0A88900F4004040B10AEBCA0000EBBB
:103960000A1031684900B0FBF1F807E00AEBCA0021
:1039700000EB0A1031688900B0FBF1F86420B8FB55
:10398000F0F004012009642101FB1089A88900F4EA
:10399000004040B1322000EBC900B0FBF1F000F074
:1039A0000700044308E0322000EB09106421B0FB5B
:1039B000F1F000F00F0004432C8106B0BDE8F08761
:1039C0004FF41651016000218180C18001810C21DA
:1039D000418100218181704710B502460020108A84
:1039E0004FF2FF0318400B884C8823438C882343F5
:1039F000CC8823431843108210BD002101804180F0
:103A00008180C180704721B1828942F40052828155
:103A100004E082894DF6FF731A4082817047F0B549
:103A20000346002400260025002040F66A17B9420C
:103A300000D100BF1846C1F3421401F01F06012750
:103A400007FA06F5012C01D10C3004E0022C01D15B
:103A5000103000E014301AB107682F43076002E00D
:103A60000768AF430760F0BD1AB1838A0B438382B6
:103A700002E0838A8B4383827047028A4FF6F07399
:103A80001A400282028A0A430282704782894FF2F8
:103A9000FF731A40828182890A438281704721B173
:103AA000828942F00202828104E082894FF6FD732E
:103AB0001A4082817047028A4FF6DF731A400282F1
:103AC000028A0A430282704721B1028A42F480428C
:103AD000028204E0028A4BF6FF731A4002827047AA
:103AE000C1F308028280704701468888C0F308004D
:103AF0007047818941F0010181817047028BD2B208
:103B00000283028B42EA012202837047028B02F495
:103B10007F420283028B0A430283704721B1828A6B
:103B200042F02002828204E0828A4FF6DF731A405C
:103B30008282704721B1828A42F01002828204E0C0
:103B4000828A4FF6EF731A408282704721B1828ACF
:103B500042F00802828204E0828A4FF6F7731A402C
:103B60008282704721B1828942F40042828103E05F
:103B70008289C2F30E028281704721B1828A42F4A7
:103B80000062828204E0828A4FF2FF731A408282CE
:103B90007047828A4FF6FB731A408282828A0A43F8
:103BA0008282704721B1828A42F00202828204E05E
:103BB000828A4FF6FD731A408282704702460020C7
:103BC000B1F5007F00D100BF13880B400BB101207D
:103BD00000E00020704701F40072B2F5007F00D1D0
:103BE00000BFCA430280704770B50246002400231C
:103BF0000025002040F66A16B14200D100BFC1F393
:103C0000421501F01F03012606FA03F3012D02D12C
:103C10009689334006E0022D02D1168A334001E036
:103C2000968A33400C12012606FA04F416883440B2
:103C300013B10CB1012000E0002070BD10B50022CE
:103C4000002340F66A14A14200D100BF0A120124E9
:103C50009440A3B2DC43048010BD00000038014052
:103C60000044004000480040004C0040005000402C
:103C700010B50446FE48844208D10121C014FFF764
:103C8000A9FD0021E014FFF7A5FDC4E0B4F1804FC9
:103C900008D101210846FFF7AAFD00210120FFF706
:103CA000A6FDB8E0F348844208D101210220FFF7C5
:103CB0009EFD00210220FFF79AFDACE0EE48844211
:103CC00008D101210420FFF792FD00210420FFF715
:103CD0008EFDA0E0E948844208D101210820FFF7C9
:103CE00086FD00210820FFF782FD94E0E44884422D
:103CF00008D101211020FFF77AFD00211020FFF7E5
:103D000076FD88E0DF48844208D101212020FFF7BA
:103D10006EFD00212020FFF76AFD7CE0DA48844236
:103D200008D101214014FFF755FD00216014FFF771
:103D300051FD70E0D548844209D10121C804FFF744
:103D400049FD00214FF40020FFF744FD63E0D04817
:103D5000844209D101210805FFF73CFD00214FF401
:103D60008010FFF737FD56E0CA48844209D101218F
:103D70004805FFF72FFD00214FF40010FFF72AFD43
:103D800049E0C548844208D101214020FFF72FFDBA
:103D900000214020FFF72BFD3DE0C048844208D1C0
:103DA00001218020FFF723FD00218020FFF71FFD68
:103DB00031E0BB48844208D101218015FFF717FD8F
:103DC0000021A015FFF713FD25E0B648844209D174
:103DD00001210804FFF7FEFC00214FF48030FFF7BB
:103DE000F9FC18E0B048844209D101214804FFF7EA
:103DF000F1FC00214FF40030FFF7ECFC0BE0AB4886
:103E0000844208D101218804FFF7E4FC00214FF42B
:103E10008020FFF7DFFC10BD00220288944B9842FF
:103E20000ED0994B98420BD0B0F1804F08D0914BF7
:103E3000984205D0904B984202D0904B984204D1C2
:103E40004FF68F731A404B881A438D4B984207D018
:103E50008C4B984204D04FF6FF431A40CB881A434C
:103E600002808B8883850B880385814B98420BD019
:103E7000854B984208D08B4B984205D08A4B98428C
:103E800002D08A4B984201D10B7A038601238382A8
:103E9000704770B5002400220023058C4FF6FE7693
:103EA00035400584028C8388048B4FF68F752C4037
:103EB000B51E2C400D882C43751E2A400D892A43BF
:103EC0004D882A436A4DA8420BD06F4DA84208D0B6
:103ED000744DA84205D0744DA84202D0734DA8423B
:103EE00013D14FF6F7752A404D892A434FF6FB75DB
:103EF0002A408D882A434FF6FF652B404FF6FF5529
:103F00002B408D892B43CD892B4383800483CD881F
:103F10008586028470BD70B5002400220023058CC4
:103F20004FF6EF7635400584028C8388048B48F683
:103F3000FF752C404FF6FF452C400D884FF6FF765D
:103F400006EA05252C434FF6DF752A400D8906EA5F
:103F500005152A434D8806EA05152A43444DA84213
:103F600002D0494DA8421DD14FF67F752A404D8998
:103F70004FF6FF7606EA05152A434FF6BF752A402D
:103F80008D8806EA05152A434FF6FF352B404FF280
:103F9000FF752B408D8906EA85052B43CD8906EAFE
:103FA00085052B4383800483CD880587028470BDFB
:103FB00070B5002400220023058C4FF6FF663540C3
:103FC0000584028C8388848B4FF68F752C404FF6C6
:103FD000FC752C400D882C434FF6FF552A400D8967
:103FE0004FF6FF7606EA05252A434D8806EA0525A1
:103FF0002A431F4DA84202D0234DA8421DD14FF2A3
:10400000FF752A404D894FF6FF7606EA05252A43BB
:104010004FF6FF352A408D8806EA05252A434EF6DD
:10402000FF752B404DF6FF752B408D8906EA05156F
:104030002B43CD8906EA05152B4383808483CD88E5
:104040008587028470BD70B5002200230024058C92
:104050004EF6FF7635400584038C8488828B48F6C3
:10406000FF752A404FF6FF452A400D8820E00000EA
:10407000002C01400004004000080040000C0040FB
:10408000001000400014004000340140004C01408A
:10409000005001400054014000180040001C004046
:1040A0000020004000400140004401400048014021
:1040B0004FF6FF7606EA05252A434DF6FF752B409D
:1040C0000D8906EA05352B434D8806EA05352B4355
:1040D000FA4DA84202D0FA4DA84208D14BF6FF751E
:1040E0002C408D894FF6FF7606EA85152C43848097
:1040F0008283CD88A0F84050038470BD828B4FF23C
:10410000FF331A408283828B4FF6FF7303EA012349
:104110001A4382837047F0B50C46154600220021F1
:104120000026078C4EF6FF7C07EA0C070784828B7B
:10413000018C4FF6FF7707EA043640F6FF473A4016
:104140004FF6FF7707EA05273A434FF6FF7707EA6E
:1041500003373A43D94FB8420ED0D94FB8420BD0AB
:10416000B0F1804F08D0D74FB84205D0D64FB842F3
:1041700002D0D64FB84206D14DF6FF77394046F40B
:104180008057394305E047F6FF57394044F48057DC
:10419000394382830184F0BD828B4FF6F3731A405A
:1041A0008283828B0A4382837047F0B50C461546A2
:1041B000002200210026078C4FF6FF6C07EA0C074F
:1041C0000784828B018C4FF6FF7707EA04264FF6AF
:1041D0000C773A404FF6FF7707EA03172F433A432D
:1041E000B64FB8420ED0B64FB8420BD0B0F1804FA8
:1041F00008D0B44FB84205D0B34FB84202D0B34F45
:10420000B84206D14FF6FF57394046F4807739431C
:1042100005E04FF2FF57394044F4807739438283F9
:104220000184F0BD028B4FF2FF331A400283028BF0
:104230004FF6FF7303EA01231A4302837047F0B578
:104240000C461546002200210026078C4FF6EF7C15
:1042500007EA0C070784028B018C4FF6FF7707EA09
:10426000041640F6FF473A404FF6FF7707EA033758
:104270003A434FF6FF7707EA05273A438F4FB84294
:104280000ED08F4FB8420BD0B0F1804F08D08D4F79
:10429000B84205D08C4FB84202D08C4FB84206D1FC
:1042A0004FF6DF77394046F01007394305E04FF607
:1042B0005F77394044F01007394302830184F0BD31
:1042C000028B4FF6F3731A400283028B0A43028378
:1042D0007047F0B50C46154600220021068C4FF6BB
:1042E000FE773E400684028B018C4FF60C763240FE
:1042F0007E1C06EA03162E433243704EB0420ED0A7
:104300006F4EB0420BD0B0F1804F08D06D4EB0422E
:1043100005D06D4EB04202D06C4EB04206D14FF681
:10432000FD76314044F00106314305E04FF6F57665
:10433000314044F00106314302830184F0BD70B581
:1043400005460C465D4885420ED05D4885420BD03F
:10435000B5F1804F08D05B48854205D05A48854268
:1043600002D05A48854200D100E000BF208850B9F1
:104370002389A28861882846FFF7ABFFE188284699
:10438000FFF79EFF25E0208804280AD12389A28810
:1043900061882846FFF753FFE1882846FFF742FF70
:1043A00017E0208808280AD12389A2886188284636
:1043B000FFF7FBFEE1882846FFF7EEFE09E02389C0
:1043C000A28861882846FFF7A6FEE1882846FFF705
:1043D00095FE70BD2DE9F04105460C4600260127EB
:1043E000608808B9022600E00026A088012801D1D3
:1043F000022700E001272088A0B92389A2886188CC
:104400002846FFF766FFE1882846FFF759FF238912
:104410003A4631462846FFF712FFE1882846FFF763
:1044200001FF13E02389A28861882846FFF707FF70
:10443000E1882846FFF7F6FE23893A4631462846AA
:10444000FFF747FFE1882846FFF73AFFBDE8F08114
:104450000A884B881A438B881A43CB881A430B89E6
:104460001A434B891A438B891A43A0F8442070479A
:104470004FF6FF71818000210180C180418001726F
:1044800070470021018041808180C180018141818C
:104490008181C1817047002101804180012181809B
:1044A0000021C1800181704700210180418081800D
:1044B000C18001814181818170470000002C014051
:1044C000003401400004004000080040000C00409F
:1044D00021B1028842F00102028004E002884FF616
:1044E000FE731A400280704731B1B0F8442042F4A4
:1044F0000042A0F8442005E0B0F84420C2F30E02C8
:10450000A0F8442070471AB183890B43838102E0ED
:1045100083898B43838170478182704741EA02031C
:10452000A0F8483070471AB183890B43838102E0B9
:1045300083898B438381704701894FF6F87211405C
:10454000018170470A46002101894FF68F73194097
:1045500011430181704730B504460D462946204677
:10456000FFF7F0FF208940F00700208130BD2DE9E2
:10457000F04104460D4616461F46602D06D13B46C7
:10458000012231462046FFF75AFE05E03B46012254
:1045900031462046FFF79DFE29462046FFF7D2FF11
:1045A000208940F007002081BDE8F08130B50C463D
:1045B00000210189C9B24FF6FF7505EA03251543AD
:1045C00025432943018130BD2DE9F04105460E46C2
:1045D00017469846002443463A4631462846FFF798
:1045E000E5FF2C894FF6F870044044F007044FF6BD
:1045F0008F70044044F070042C81BDE8F081F0B568
:1046000004460D4616461F463B463246294620467E
:10461000FFF7CCFF208940F480402081F0BD018568
:10462000828270470A46002101884FF68F73194035
:10463000114301807047F0B50C4615461E46002117
:10464000002200230189028B038C4FF6F877394052
:1046500021434FF6FC473A4040F201173A434FF6E8
:10466000DD773B404FF6FF7707EA06172F433B43C2
:10467000018102830384F0BD0A460021018B4FF6BD
:104680008F7319401143018370470A460021018B43
:1046900048F6FF7319404FF6FF7303EA02231943EC
:1046A000018370470A460021818B4FF68F731940B2
:1046B0001143818370470A460021818B48F6FF73BE
:1046C00019404FF6FF7303EA0223194381837047B1
:1046D00021B1028842F08002028004E002884FF695
:1046E0007F731A400280704721B1828842F0040231
:1046F000828004E082884FF6FB731A408280704704
:1047000021B1828842F00802828004E082884FF65C
:10471000F7731A408280704721B1828842F001020B
:10472000828004E082884FF6FE731A4082807047D0
:104730000A460021018B4FF6F7731940114301839C
:1047400070470A460021018B4FF2FF7319404FF664
:10475000FF7303EA02231943018370470A460021CD
:10476000818B4FF6F77319401143818370470A46D6
:104770000021818B4FF2FF7319404FF6FF7303EA5C
:1047800002231943818370470A460021018B4FF6AB
:10479000FB7319401143018370470A460021018BC6
:1047A0004FF6FF3319404FF6FF7303EA0223194314
:1047B000018370470A460021818B4FF6FB73194035
:1047C0001143818370470A460021818B4FF6FF33E6
:1047D00019404FF6FF7303EA0223194381837047A0
:1047E0000A460021018B4FF67F7319401143018364
:1047F00070470A460021018BC1F30E014FF6FF738B
:1048000003EA02231943018370470A460021818B82
:104810004FF67F7319401143818370470A46002188
:10482000818BC1F30E014FF6FF7303EA0223194394
:10483000818370470A460021018C4FF6FD731940B1
:104840001143018470470A460021018C4FF6F7732B
:1048500019401143018470470A460021018C4FF62C
:10486000DF7319404FF6FF7303EA02131943018403
:1048700070470A460021018C4FF67F7319404FF6AE
:10488000FF7303EA02131943018470470A460021AB
:10489000018C4FF6FF5319404FF6FF7303EA0223D2
:1048A0001943018470470A460021018C4FF2FF73BF
:1048B00019404FF6FF7303EA02231943018470473E
:1048C0000A460021018C4DF6FF7319404FF6FF7325
:1048D00003EA023319430184704730B500230124F1
:1048E0008C40A3B2048C9C430484048C02FA01F52E
:1048F000ADB22C43048430BD30B5002304248C4079
:10490000A3B2048C9C430484048C02FA01F5ADB27A
:104910002C43048430BD70B50346002000241846A3
:10492000183001258D40ACB21D8CA5431D8409B102
:10493000082909D100EB6100056825F070050560C4
:104940000568154305600EE00D1FC5F34E052844AC
:10495000056825F4E045056005684FF6FF7606EA30
:1049600002263543056070BD21B1028842F0020283
:10497000028004E002884FF6FD731A4002807047FF
:1049800021B1028842F00402028004E002884FF65E
:10499000FB731A400280704721B1828842F0800286
:1049A000828004E082884FF67F731A4082807047CD
:1049B00002884FF6F7731A40028002880A43028089
:1049C000704782884FF68F731A40828082880A432C
:1049D0008280704702894FF6F8731A40028102897B
:1049E0000A430281704702894FF67F731A400281A1
:1049F00002890A430281704781847047818570472C
:104A0000818670470187704781877047A0F8401002
:104A1000704702884FF6FF431A40028002880A431B
:104A2000028070470146888E70470146088F7047A4
:104A30000146888F70470146B1F840007047014633
:104A4000888C70470146088D704702460020138A03
:104A50000B400BB1012000E000207047CA430282E6
:104A6000704730B50246002000230024158A05EA6D
:104A70000103958905EA010413B10CB1012000E09E
:104A8000002030BDCA43028270470000014600206A
:104A9000FE4A106800F03800084310607047FB4978
:104AA000096821F00801F94A1160114609680143BB
:104AB00011607047F549096821F01001F34A11604F
:104AC00011460968014311607047F148EF49486099
:104AD000F04848607047EE48EC494860ED4848604F
:104AE0007047EA48006940F08000E8490861704773
:104AF000E648006940F08000E449086170470420FE
:104B0000E249C96801F0010109B101200EE0DF4965
:104B1000C96801F0040109B1022007E0DB49C96856
:104B200001F0100109B1032000E00420704700B536
:104B300002460423FFF7E3FF034603E0FFF7DFFF2E
:104B40000346521E012B01D1002AF7D102B90523D9
:104B5000184600BD30B5044604254FF43020FFF759
:104B6000E6FF0546042D17D1C848006940F0020051
:104B7000C649086108464461006940F04000086188
:104B80004FF43020FFF7D3FF0546C048006941F6D7
:104B9000FD710840BD490861284630BD10B50424A8
:104BA0004FF43020FFF7C3FF0446042C16D1B7485A
:104BB000006940F00400B54908610846006940F00A
:104BC000400008614FF43020FFF7B1FF0446AF48C2
:104BD000006941F6FB710840AC490861204610BDF0
:104BE00000B502460423FFF78AFF034603E0FFF700
:104BF00086FF0346521E012B01D1002AF7D102B9CC
:104C00000523184600BD10B504244FF43020FFF7EB
:104C1000E7FF0446042C16D19C48006940F00400CC
:104C20009A4908610846006940F0400008614FF465
:104C30003020FFF7D5FF04469448006941F6FB7128
:104C4000084092490861204610BD00208F49C9697B
:104C500001F0020109B1012000E00020704730B5E9
:104C6000A5250424FFF7F1FF00B100254FF4302003
:104C7000FFF75DFF0446042C3AD1854883498860DC
:104C8000844888600846006940F0200008610846B2
:104C9000006940F0400008614FF43020FFF747FF03
:104CA0000446042C1BD17948006941F6DF710840A5
:104CB000764908610846006940F0100008617648AE
:104CC0000580E002FFF733FF0446052C10D06F4843
:104CD000006941F6EF7108406C49086108E0052C55
:104CE00006D06A48006941F6EF71084067490861DB
:104CF000204630BD78B506460C46042500200090BD
:104D0000E802FFF714FF0546042D24D15F4800692F
:104D100040F001005D4908613480E802FFF707FFB9
:104D20000546042D10D1B01C0090200C009908807D
:104D3000E802FFF7FCFE05465448006941F6FE71A3
:104D400008405249086106E05048006941F6FE718A
:104D500008404E490861284678BD70B504460D46A6
:104D60000426F002FFF7E3FE0646042E11D1474861
:104D7000006940F00100454908612580F002FFF715
:104D8000D6FE06464148006941F6FE7108403F499B
:104D90000861304670BD70B505460E460424E00239
:104DA000FFF7C5FE0446042C17D1394837498860FF
:104DB000384888600846006940F0100008612E807D
:104DC000E002FFF7B4FE0446052C06D02F48006928
:104DD00041F6EF7108402D490861204670BD2DE96C
:104DE000F04304464FF6FF763746B046B1460425F9
:104DF000E443E6B2C4F30727C4F307484FEA146953
:104E0000E802FFF794FE0546042D49D120481F49CA
:104E10008860204888600846006940F010000861FA
:104E2000FF2E06D01C4808300680E802FFF77FFE00
:104E30000546042D08D1FF2F06D017480A300780F9
:104E4000E802FFF774FE0546042D0AD1B8F1FF0F02
:104E500007D011480C30A0F80080E802FFF767FE89
:104E60000546042D0AD1B9F1FF0F07D00A480E30CC
:104E7000A0F80090E802FFF75AFE0546052D0FD076
:104E80000248006941F6EF71084007E00020024047
:104E900023016745AB89EFCD00F8FF1F6649086124
:104EA0002846BDE8F08330B5054604244FF4302091
:104EB000FFF73DFE0446042C41D160485E498860FE
:104EC0005F4888600846006940F020000861084695
:104ED000006940F0400008614FF43020FFF727FEE2
:104EE0000446042C22D15448006941F6DF71084081
:104EF000514908610846006940F0100008611DB181
:104F000000205049088002E0A5204E4908804FF457
:104F10003020FFF70CFE0446052C10D046480069EF
:104F200041F6EF7108404449086108E0052C06D0BD
:104F30004148006941F6DF7108403F490861204659
:104F400030BDF0B505460E46174604243B483A49A5
:104F500088603B488860E002FFF7E9FD0446042CC6
:104F600019D13548006940F010003349086147F015
:104F7000F800304328433349891C0880E002FFF7DA
:104F8000D6FD0446052C06D02B48006941F6EF718A
:104F90000840294908612046F0BD2748C0698008BB
:104FA00070472548006A704700202349096801F0CE
:104FB000200109B1012000E00020704729B11E4AFC
:104FC000126902431C4B1A6104E01B4A12698243B6
:104FD000194B1A61704701460020012908D1164A71
:104FE000D26902F001020AB1012008E0002006E0C7
:104FF000114AD2680A400AB1012000E0002070473F
:105000000D49C860704704200B49C96801F00101CF
:1050100009B101200EE00849C96801F0040109B195
:10502000022007E00449C96801F0100109B103201A
:1050300000E0042070470000002002402301674583
:10504000AB89EFCD00F8FF1F40EA01039B0703D0B7
:1050500009E008C9121F08C0042AFAD203E011F8B7
:10506000013B00F8013B521EF9D27047D2B201E079
:1050700000F8012B491EFBD270470022F6E710B55D
:1050800013460A4604461946FFF7F0FF204610BDB6
:10509000421E12F8013F002BFBD111F8013B02F830
:1050A000013B002BF9D1704730B505462A460B4627
:1050B00012F8010B13F8014B08B1A042F8D01CB153
:1050C000002802D06D1CF1E7284630BD421C10F8C4
:1050D000011B0029FBD1801A704730B50B460146F1
:1050E00000202022012409E021FA02F59D4205D387
:1050F00003FA02F5491B04FA02F52844151EA2F131
:105100000102F1DC30BD0000064C074D06E0E0680E
:1051100040F0010394E8070098471034AC42F6D3FE
:10512000FAF7E8FF6C5C00088C5C000870B58D181D
:1051300010F8014B14F0030201D110F8012B2311D8
:1051400006D110F8013B03E010F8016B01F8016B88
:10515000521EF9D1ABB110F8012B04F00C048A1ADD
:105160000C2C03D0A2EB84129B1C08E010F8014B1E
:10517000A2EB0422F8E712F8014B01F8014B5B1E89
:10518000F9D5A942D4D3002070BD00000FB4084B5C
:1051900010B504A902AA039800F01CF8044602A95D
:1051A000002000F0F3F8204610BC5DF814FB00006E
:1051B0008D53000802E008C8121F08C1002AFAD166
:1051C00070477047002001E001C1121F002AFBD187
:1051D000704700002DE9FF4F8BB09A460F460546F9
:1051E000002606E025280BD052460D9990476D1CED
:1051F000761C28780028F5D10FB03046BDE8F08F36
:105200000024A0460122604900E0044315F8013F54
:10521000203B02FA03F00842F7D128782E2817D154
:1052200015F8010F44F004042A280ED06FF02F0265
:105230002878A0F1300109290AD808EB880102EB8F
:10524000410100EB01086D1CF2E757F8048B6D1C5F
:10525000287869283ED006DC0028CDD063280BD002
:10526000642804D136E0732810D075284BD05246FC
:105270000D999047761C85E017F8040B8DF8000017
:1052800000208DF80100E946012003E057F8049B57
:105290004FF0FF3061074FF0000401D40AE0641CB6
:1052A00044450DDA8442FADB19F804100029F6D1DE
:1052B00006E0641C8442FCDB19F804100029F8D1D4
:1052C000264404E019F8010B52460D999047641EDC
:1052D000F8D257E001CF4FF00A0B002802DA404223
:1052E0002D2102E0210504D52B218DF82410012168
:1052F00003E0E10705D02021F7E70DF1200908912F
:105300000CE00021F9E701CF4FF00A0BF9E759460D
:10531000FFF7E3FE01F1300209F8012D0028F6D174
:10532000ADEB090000F1200B600701D44FF001083C
:10533000D84502DDA8EB0B0000E0002080460024E9
:1053400006E009A85246005D0D999047641C761C42
:1053500008988442F5DB04E0302052460D999047CE
:10536000761CB8F10001A8F10108F5DC05E019F898
:10537000010B52460D999047761CBBF10001ABF131
:10538000010BF4DC6D1C34E7092801000A68531C8A
:105390000B6010707047000010B5002821D0114B31
:1053A0000022001F196803E0814203D80A464968B9
:1053B0000029F9D152B11368841A9C4204D10068C3
:1053C00018441060104602E0506000E0186039B1E7
:1053D00002680B1A934203D10B681A4402604968B1
:1053E000416010BD74110020F0B50B30154D20F058
:1053F00007010024144A0FE003688B420BD38B4251
:1054000005D95E1A43184768C3E9006700E043689E
:10541000136002C004E0021D10680028ECD1204691
:10542000002802D1286808B10020F0BD064A0748CC
:105430001060074A121A22F00702C0E90024012076
:105440002860D7E77811002074110020B4170020DD
:10545000B01900200000000000000000002F000034
:1054600000000700070000147F147F1400242A7F27
:105470002A120062640813230036495522500000A6
:105480000503000000001C224100000041221C0016
:105490000014083E08140008083E0808000000A098
:1054A0006000000808080808000060600000002094
:1054B00010080402003E5149453E0000427F400072
:1054C000004261514946002141454B3100181412F8
:1054D0007F10002745454539003C4A4949300001C5
:1054E0007109050300364949493600064949291E14
:1054F0000000363600000000563600000008142276
:105500004100001414141414000041221408000275
:105510000151090600324959513E007C1211127C9A
:10552000007F49494936003E41414122007F4141C7
:10553000221C007F49494941007F09090901003EB9
:105540004149497A007F0808087F0000417F4100F7
:10555000002040413F01007F08142241007F40406D
:105560004040007F020C027F007F0408107F003E55
:105570004141413E007F09090906003E4151215E3B
:10558000007F091929460046494949310001017F38
:105590000101003F4040403F001F2040201F003FCE
:1055A0004038403F00631408146300070870080780
:1055B00000615149454300007F41410000552A5593
:1055C0002A55000041417F0000040201020400400E
:1055D0004040404000000102040000205454547830
:1055E000007F484444380038444444200038444450
:1055F000487F00385454541800087E0901020018EE
:10560000A4A4A47C007F080404780000447D40002A
:10561000004080847D00007F102844000000417F0E
:105620004000007C04180478007C080404780038EA
:105630004444443800FC242424180018242418FC72
:10564000007C0804040800485454542000043F44DB
:105650004020003C4040207C001C2040201C003C9E
:105660004030403C004428102844001CA0A0A07CEE
:10567000004464544C441414141414140000000026
:10568000000000000000000000000000000000F822
:1056900000000000000000333000000000100C0685
:1056A000100C0600000000000000000040C0784020
:1056B000C0784000043F04043F040400007088FCEC
:1056C00008300000001820FF211E0000F008F00044
:1056D000E018000000211C031E211E0000F00888B5
:1056E000700000001E2123241927211010160E001F
:1056F000000000000000000000000000000000E0CA
:1057000018040200000000071820400000020418DE
:10571000E00000000040201807000000404080F03A
:10572000804040000202010F01020200000000F070
:10573000000000000101011F010101000000000044
:105740000000000080B070000000000000000000B9
:105750000000000000010101010101010000000042
:1057600000000000003030000000000000000000D9
:1057700080601804006018060100000000E01008B6
:105780000810E000000F102020100F00001010F88B
:10579000000000000020203F2020000000700808CA
:1057A000088870000030282422213000003008884A
:1057B000884830000018202020110E000000C02072
:1057C00010F8000000070424243F240000F8088893
:1057D000880808000019212020110E0000E0108820
:1057E00088180000000F112020110E000038080852
:1057F000C83808000000003F000000000070880862
:1058000008887000001C222121221C0000E01008E2
:105810000810E0000000312222110F00000000C03B
:10582000C0000000000000303000000000000080D8
:1058300000000000000080600000000000008040C8
:1058400020100800000102040810200040404040E1
:105850004040400004040404040404000008102034
:105860004080000000201008040201000070480879
:105870000808F0000000003036010000C030C828E1
:10588000E810E0000718272423140B000000C0389C
:10589000E0000000203C23020227382008F8888816
:1058A00088700000203F202020110E00C030080822
:1058B00008083800071820202010080008F80808F9
:1058C0000810E000203F202020100F0008F88888F2
:1058D000E8081000203F20202320180008F88888BE
:1058E000E8081000203F200003000000C030080836
:1058F0000838000007182020221E020008F80800BF
:105900000008F808203F210101213F20000808F885
:10591000080800000020203F2020000000000808A8
:10592000F8080800C08080807F00000008F888C068
:1059300028180800203F20012638200008F8080019
:1059400000000000203F20202020300008F8F80050
:10595000F8F80800203F003F003F200008F830C062
:105960000008F808203F200007183F00E010080852
:105970000810E0000F10202020100F0008F8080881
:105980000808F000203F210101010000E010080894
:105990000810E0000F18242438504F0008F88888B9
:1059A00088887000203F2000030C30200070880899
:1059B000080838000038202121221C00180808F8A7
:1059C000080818000000203F2000000008F8080028
:1059D0000008F808001F202020201F0008788800F9
:1059E00000C83808000007380E010000F80800F869
:1059F0000008F800033C0700073C03000818688013
:105A00008068180820302C03032C30200838C80088
:105A1000C83808000000203F2000000010080808D7
:105A2000C83808002038262120201800000000FE79
:105A3000020202000000007F40404000000C30C025
:105A400000000000000000010638C0000002020251
:105A5000FE000000004040407F0000000000040203
:105A6000020204000000000000000000000000002E
:105A7000000000008080808080808080000202041E
:105A80000000000000000000000000000000808016
:105A9000808000000019242222223F2008F8008084
:105AA00080000000003F112020110E000000008047
:105AB00080800000000E11202020110000000080D6
:105AC0008088F800000E112020103F200000808008
:105AD00080800000001F222222221300008080F01C
